{"contracts/lottery.sol":{"Lottery":{"abi":[{"inputs":[{"internalType":"address","name":"vrfCoordinatorV2","type":"address"},{"internalType":"uint64","name":"subscriptionId","type":"uint64"},{"internalType":"bytes32","name":"gasLane","type":"bytes32"},{"internalType":"uint256","name":"interval","type":"uint256"},{"internalType":"uint256","name":"entranceFee","type":"uint256"},{"internalType":"uint32","name":"callbackGasLimit","type":"uint32"}],"stateMutability":"nonpayable","type":"constructor"},{"inputs":[],"name":"Lottery__LotteryNotOpen","type":"error"},{"inputs":[],"name":"Lottery__SendMoreToEnterLottery","type":"error"},{"inputs":[],"name":"Lottery__TransferFailed","type":"error"},{"inputs":[{"internalType":"uint256","name":"currentBalance","type":"uint256"},{"internalType":"uint256","name":"numPlayers","type":"uint256"},{"internalType":"uint256","name":"lotteryState","type":"uint256"}],"name":"Lottery__UpkeepNotNeeded","type":"error"},{"inputs":[{"internalType":"address","name":"have","type":"address"},{"internalType":"address","name":"want","type":"address"}],"name":"OnlyCoordinatorCanFulfill","type":"error"},{"anonymous":false,"inputs":[{"indexed":true,"internalType":"address","name":"player","type":"address"}],"name":"LotteryEnter","type":"event"},{"anonymous":false,"inputs":[{"indexed":true,"internalType":"uint256","name":"requestId","type":"uint256"}],"name":"RequestedLotteryWinner","type":"event"},{"anonymous":false,"inputs":[{"indexed":true,"internalType":"address","name":"player","type":"address"}],"name":"WinnerPicked","type":"event"},{"inputs":[{"internalType":"bytes","name":"","type":"bytes"}],"name":"checkUpkeep","outputs":[{"internalType":"bool","name":"upkeepNeeded","type":"bool"},{"internalType":"bytes","name":"","type":"bytes"}],"stateMutability":"view","type":"function"},{"inputs":[],"name":"enterLottery","outputs":[],"stateMutability":"payable","type":"function"},{"inputs":[],"name":"getEntranceFee","outputs":[{"internalType":"uint256","name":"","type":"uint256"}],"stateMutability":"view","type":"function"},{"inputs":[],"name":"getInterval","outputs":[{"internalType":"uint256","name":"","type":"uint256"}],"stateMutability":"view","type":"function"},{"inputs":[],"name":"getLastTimeStamp","outputs":[{"internalType":"uint256","name":"","type":"uint256"}],"stateMutability":"view","type":"function"},{"inputs":[],"name":"getLotteryState","outputs":[{"internalType":"enum Lottery.LotteryState","name":"","type":"uint8"}],"stateMutability":"view","type":"function"},{"inputs":[],"name":"getNumWords","outputs":[{"internalType":"uint256","name":"","type":"uint256"}],"stateMutability":"pure","type":"function"},{"inputs":[],"name":"getNumberOfPlayers","outputs":[{"internalType":"uint256","name":"","type":"uint256"}],"stateMutability":"view","type":"function"},{"inputs":[{"internalType":"uint256","name":"index","type":"uint256"}],"name":"getPlayer","outputs":[{"internalType":"address","name":"","type":"address"}],"stateMutability":"view","type":"function"},{"inputs":[],"name":"getRecentWinner","outputs":[{"internalType":"address","name":"","type":"address"}],"stateMutability":"view","type":"function"},{"inputs":[],"name":"getRequestConfirmations","outputs":[{"internalType":"uint256","name":"","type":"uint256"}],"stateMutability":"pure","type":"function"},{"inputs":[{"internalType":"bytes","name":"","type":"bytes"}],"name":"performUpkeep","outputs":[],"stateMutability":"nonpayable","type":"function"},{"inputs":[{"internalType":"uint256","name":"requestId","type":"uint256"},{"internalType":"uint256[]","name":"randomWords","type":"uint256[]"}],"name":"rawFulfillRandomWords","outputs":[],"stateMutability":"nonpayable","type":"function"}],"devdoc":{"kind":"dev","methods":{"checkUpkeep(bytes)":{"details":"This is the function that the Chainlink Keeper nodes call they look for `upkeepNeeded` to return True. the following should be true for this to return true: 1. The time interval has passed between lottery runs. 2. The lottery is open. 3. The contract has ETH. 4. Implicity, your subscription is funded with LINK."},"performUpkeep(bytes)":{"details":"Once `checkUpkeep` is returning `true`, this function is called and it kicks off a Chainlink VRF call to get a random winner."}},"version":1},"evm":{"bytecode":{"linkReferences":{},"object":"6101606040523480156200001257600080fd5b506040516200184138038062001841833981810160405281019062000038919062000294565b858073ffffffffffffffffffffffffffffffffffffffff1660808173ffffffffffffffffffffffffffffffffffffffff1681525050508573ffffffffffffffffffffffffffffffffffffffff1660a08173ffffffffffffffffffffffffffffffffffffffff16815250508360e081815250508261012081815250508467ffffffffffffffff1660c08167ffffffffffffffff16815250508161014081815250506000600360006101000a81548160ff0219169083600181111562000101576200010062000330565b5b0217905550426000819055508063ffffffff166101008163ffffffff16815250505050505050506200035f565b600080fd5b600073ffffffffffffffffffffffffffffffffffffffff82169050919050565b6000620001608262000133565b9050919050565b620001728162000153565b81146200017e57600080fd5b50565b600081519050620001928162000167565b92915050565b600067ffffffffffffffff82169050919050565b620001b78162000198565b8114620001c357600080fd5b50565b600081519050620001d781620001ac565b92915050565b6000819050919050565b620001f281620001dd565b8114620001fe57600080fd5b50565b6000815190506200021281620001e7565b92915050565b6000819050919050565b6200022d8162000218565b81146200023957600080fd5b50565b6000815190506200024d8162000222565b92915050565b600063ffffffff82169050919050565b6200026e8162000253565b81146200027a57600080fd5b50565b6000815190506200028e8162000263565b92915050565b60008060008060008060c08789031215620002b457620002b36200012e565b5b6000620002c489828a0162000181565b9650506020620002d789828a01620001c6565b9550506040620002ea89828a0162000201565b9450506060620002fd89828a016200023c565b93505060806200031089828a016200023c565b92505060a06200032389828a016200027d565b9150509295509295509295565b7f4e487b7100000000000000000000000000000000000000000000000000000000600052602160045260246000fd5b60805160a05160c05160e051610100516101205161014051611472620003cf600039600081816102fa015261073e01526000818161066f015261071801526000610516015260006104d2015260006104f301526000610496015260008181610320015261037401526114726000f3fe6080604052600436106100c25760003560e01c80636b68c03c1161007f578063c1af578511610059578063c1af578514610259578063c1c244e814610263578063e55ae4e81461028e578063fd6673f5146102cb576100c2565b80636b68c03c146101c55780636e04ff0d146101f057806391ad27b41461022e576100c2565b806309bc33a7146100c75780631fe543e3146100f25780634585e33b1461011b578063473f1ddc1461014457806353a2c19a1461016f5780635f1b0fd81461019a575b600080fd5b3480156100d357600080fd5b506100dc6102f6565b6040516100e99190610bfc565b60405180910390f35b3480156100fe57600080fd5b5061011960048036038101906101149190610db0565b61031e565b005b34801561012757600080fd5b50610142600480360381019061013d9190610e67565b6103de565b005b34801561015057600080fd5b506101596105cf565b6040516101669190610ef5565b60405180910390f35b34801561017b57600080fd5b506101846105f9565b6040516101919190610bfc565b60405180910390f35b3480156101a657600080fd5b506101af610608565b6040516101bc9190610bfc565b60405180910390f35b3480156101d157600080fd5b506101da610615565b6040516101e79190610f87565b60405180910390f35b3480156101fc57600080fd5b5061021760048036038101906102129190611057565b61062c565b60405161022592919061113a565b60405180910390f35b34801561023a57600080fd5b50610243610714565b6040516102509190610bfc565b60405180910390f35b61026161073c565b005b34801561026f57600080fd5b506102786108ab565b6040516102859190610bfc565b60405180910390f35b34801561029a57600080fd5b506102b560048036038101906102b0919061116a565b6108b4565b6040516102c29190610ef5565b60405180910390f35b3480156102d757600080fd5b506102e06108fc565b6040516102ed9190610bfc565b60405180910390f35b60007f0000000000000000000000000000000000000000000000000000000000000000905090565b7f000000000000000000000000000000000000000000000000000000000000000073ffffffffffffffffffffffffffffffffffffffff163373ffffffffffffffffffffffffffffffffffffffff16146103d057337f00000000000000000000000000000000000000000000000000000000000000006040517f1cf993f40000000000000000000000000000000000000000000000000000000081526004016103c7929190611197565b60405180910390fd5b6103da8282610909565b5050565b60006103f86040518060200160405280600081525061062c565b509050806104675747600280549050600360009054906101000a900460ff16600181111561042957610428610f10565b5b6040517f6e195f2500000000000000000000000000000000000000000000000000000000815260040161045e939291906111c0565b60405180910390fd5b6001600360006101000a81548160ff0219169083600181111561048d5761048c610f10565b5b021790555060007f000000000000000000000000000000000000000000000000000000000000000073ffffffffffffffffffffffffffffffffffffffff16635d3b1d307f00000000000000000000000000000000000000000000000000000000000000007f000000000000000000000000000000000000000000000000000000000000000060037f000000000000000000000000000000000000000000000000000000000000000060016040518663ffffffff1660e01b815260040161055795949392919061126f565b6020604051808303816000875af1158015610576573d6000803e3d6000fd5b505050506040513d601f19601f8201168201806040525081019061059a91906112d7565b9050807febf56642252004c18a776f30d528e7a0ce8c5db14b6596fb6550f630c8a24c6c60405160405180910390a250505050565b6000600160009054906101000a900473ffffffffffffffffffffffffffffffffffffffff16905090565b6000600163ffffffff16905090565b6000600361ffff16905090565b6000600360009054906101000a900460ff16905090565b600060606000600360009054906101000a900460ff16600181111561065457610653610f10565b5b6000600181111561066857610667610f10565b5b14905060007f00000000000000000000000000000000000000000000000000000000000000006000544261069c9190611333565b119050600080600280549050119050600080471190508280156106bc5750835b80156106c55750805b80156106ce5750815b9550856040518060400160405280600381526020017f30783000000000000000000000000000000000000000000000000000000000008152509550955050505050915091565b60007f0000000000000000000000000000000000000000000000000000000000000000905090565b7f0000000000000000000000000000000000000000000000000000000000000000341015610796576040517fa4078c2400000000000000000000000000000000000000000000000000000000815260040160405180910390fd5b600060018111156107aa576107a9610f10565b5b600360009054906101000a900460ff1660018111156107cc576107cb610f10565b5b14610803576040517f823ea8bb00000000000000000000000000000000000000000000000000000000815260040160405180910390fd5b6002339080600181540180825580915050600190039060005260206000200160009091909190916101000a81548173ffffffffffffffffffffffffffffffffffffffff021916908373ffffffffffffffffffffffffffffffffffffffff1602179055503373ffffffffffffffffffffffffffffffffffffffff167f1d64fb5ba9f2548c5b98468d58f25b87b9e866afee0122e92d9fe722bf85076c60405160405180910390a2565b60008054905090565b6000600282815481106108ca576108c9611367565b5b9060005260206000200160009054906101000a900473ffffffffffffffffffffffffffffffffffffffff169050919050565b6000600280549050905090565b60006002805490508260008151811061092557610924611367565b5b602002602001015161093791906113c5565b905060006002828154811061094f5761094e611367565b5b9060005260206000200160009054906101000a900473ffffffffffffffffffffffffffffffffffffffff16905080600160006101000a81548173ffffffffffffffffffffffffffffffffffffffff021916908373ffffffffffffffffffffffffffffffffffffffff160217905550600067ffffffffffffffff8111156109d8576109d7610c6d565b5b604051908082528060200260200182016040528015610a065781602001602082028036833780820191505090505b5060029080519060200190610a1c929190610b3c565b506000600360006101000a81548160ff02191690836001811115610a4357610a42610f10565b5b02179055504260008190555060008173ffffffffffffffffffffffffffffffffffffffff1647604051610a7590611427565b60006040518083038185875af1925050503d8060008114610ab2576040519150601f19603f3d011682016040523d82523d6000602084013e610ab7565b606091505b5050905080610af2576040517f1c94012000000000000000000000000000000000000000000000000000000000815260040160405180910390fd5b8173ffffffffffffffffffffffffffffffffffffffff167f5b690ec4a06fe979403046eaeea5b3ce38524683c3001f662c8b5a829632f7df60405160405180910390a25050505050565b828054828255906000526020600020908101928215610bb5579160200282015b82811115610bb45782518260006101000a81548173ffffffffffffffffffffffffffffffffffffffff021916908373ffffffffffffffffffffffffffffffffffffffff16021790555091602001919060010190610b5c565b5b509050610bc29190610bc6565b5090565b5b80821115610bdf576000816000905550600101610bc7565b5090565b6000819050919050565b610bf681610be3565b82525050565b6000602082019050610c116000830184610bed565b92915050565b6000604051905090565b600080fd5b600080fd5b610c3481610be3565b8114610c3f57600080fd5b50565b600081359050610c5181610c2b565b92915050565b600080fd5b6000601f19601f8301169050919050565b7f4e487b7100000000000000000000000000000000000000000000000000000000600052604160045260246000fd5b610ca582610c5c565b810181811067ffffffffffffffff82111715610cc457610cc3610c6d565b5b80604052505050565b6000610cd7610c17565b9050610ce38282610c9c565b919050565b600067ffffffffffffffff821115610d0357610d02610c6d565b5b602082029050602081019050919050565b600080fd5b6000610d2c610d2784610ce8565b610ccd565b90508083825260208201905060208402830185811115610d4f57610d4e610d14565b5b835b81811015610d785780610d648882610c42565b845260208401935050602081019050610d51565b5050509392505050565b600082601f830112610d9757610d96610c57565b5b8135610da7848260208601610d19565b91505092915050565b60008060408385031215610dc757610dc6610c21565b5b6000610dd585828601610c42565b925050602083013567ffffffffffffffff811115610df657610df5610c26565b5b610e0285828601610d82565b9150509250929050565b600080fd5b60008083601f840112610e2757610e26610c57565b5b8235905067ffffffffffffffff811115610e4457610e43610e0c565b5b602083019150836001820283011115610e6057610e5f610d14565b5b9250929050565b60008060208385031215610e7e57610e7d610c21565b5b600083013567ffffffffffffffff811115610e9c57610e9b610c26565b5b610ea885828601610e11565b92509250509250929050565b600073ffffffffffffffffffffffffffffffffffffffff82169050919050565b6000610edf82610eb4565b9050919050565b610eef81610ed4565b82525050565b6000602082019050610f0a6000830184610ee6565b92915050565b7f4e487b7100000000000000000000000000000000000000000000000000000000600052602160045260246000fd5b60028110610f5057610f4f610f10565b5b50565b6000819050610f6182610f3f565b919050565b6000610f7182610f53565b9050919050565b610f8181610f66565b82525050565b6000602082019050610f9c6000830184610f78565b92915050565b600080fd5b600067ffffffffffffffff821115610fc257610fc1610c6d565b5b610fcb82610c5c565b9050602081019050919050565b82818337600083830152505050565b6000610ffa610ff584610fa7565b610ccd565b90508281526020810184848401111561101657611015610fa2565b5b611021848285610fd8565b509392505050565b600082601f83011261103e5761103d610c57565b5b813561104e848260208601610fe7565b91505092915050565b60006020828403121561106d5761106c610c21565b5b600082013567ffffffffffffffff81111561108b5761108a610c26565b5b61109784828501611029565b91505092915050565b60008115159050919050565b6110b5816110a0565b82525050565b600081519050919050565b600082825260208201905092915050565b60005b838110156110f55780820151818401526020810190506110da565b60008484015250505050565b600061110c826110bb565b61111681856110c6565b93506111268185602086016110d7565b61112f81610c5c565b840191505092915050565b600060408201905061114f60008301856110ac565b81810360208301526111618184611101565b90509392505050565b6000602082840312156111805761117f610c21565b5b600061118e84828501610c42565b91505092915050565b60006040820190506111ac6000830185610ee6565b6111b96020830184610ee6565b9392505050565b60006060820190506111d56000830186610bed565b6111e26020830185610bed565b6111ef6040830184610bed565b949350505050565b6000819050919050565b61120a816111f7565b82525050565b600067ffffffffffffffff82169050919050565b61122d81611210565b82525050565b600061ffff82169050919050565b61124a81611233565b82525050565b600063ffffffff82169050919050565b61126981611250565b82525050565b600060a0820190506112846000830188611201565b6112916020830187611224565b61129e6040830186611241565b6112ab6060830185611260565b6112b86080830184611260565b9695505050505050565b6000815190506112d181610c2b565b92915050565b6000602082840312156112ed576112ec610c21565b5b60006112fb848285016112c2565b91505092915050565b7f4e487b7100000000000000000000000000000000000000000000000000000000600052601160045260246000fd5b600061133e82610be3565b915061134983610be3565b925082820390508181111561136157611360611304565b5b92915050565b7f4e487b7100000000000000000000000000000000000000000000000000000000600052603260045260246000fd5b7f4e487b7100000000000000000000000000000000000000000000000000000000600052601260045260246000fd5b60006113d082610be3565b91506113db83610be3565b9250826113eb576113ea611396565b5b828206905092915050565b600081905092915050565b50565b60006114116000836113f6565b915061141c82611401565b600082019050919050565b600061143282611404565b915081905091905056fea264697066735822122080a05836ba04632d2f86635563e790d18ac067d5324b07fc97834ee6f145a7cf64736f6c63430008180033","opcodes":"PUSH2 0x160 PUSH1 0x40 MSTORE CALLVALUE DUP1 ISZERO PUSH3 0x12 JUMPI PUSH1 0x0 DUP1 REVERT JUMPDEST POP PUSH1 0x40 MLOAD PUSH3 0x1841 CODESIZE SUB DUP1 PUSH3 0x1841 DUP4 CODECOPY DUP2 DUP2 ADD PUSH1 0x40 MSTORE DUP2 ADD SWAP1 PUSH3 0x38 SWAP2 SWAP1 PUSH3 0x294 JUMP JUMPDEST DUP6 DUP1 PUSH20 0xFFFFFFFFFFFFFFFFFFFFFFFFFFFFFFFFFFFFFFFF AND PUSH1 0x80 DUP2 PUSH20 0xFFFFFFFFFFFFFFFFFFFFFFFFFFFFFFFFFFFFFFFF AND DUP2 MSTORE POP POP POP DUP6 PUSH20 0xFFFFFFFFFFFFFFFFFFFFFFFFFFFFFFFFFFFFFFFF AND PUSH1 0xA0 DUP2 PUSH20 0xFFFFFFFFFFFFFFFFFFFFFFFFFFFFFFFFFFFFFFFF AND DUP2 MSTORE POP POP DUP4 PUSH1 0xE0 DUP2 DUP2 MSTORE POP POP DUP3 PUSH2 0x120 DUP2 DUP2 MSTORE POP POP DUP5 PUSH8 0xFFFFFFFFFFFFFFFF AND PUSH1 0xC0 DUP2 PUSH8 0xFFFFFFFFFFFFFFFF AND DUP2 MSTORE POP POP DUP2 PUSH2 0x140 DUP2 DUP2 MSTORE POP POP PUSH1 0x0 PUSH1 0x3 PUSH1 0x0 PUSH2 0x100 EXP DUP2 SLOAD DUP2 PUSH1 0xFF MUL NOT AND SWAP1 DUP4 PUSH1 0x1 DUP2 GT ISZERO PUSH3 0x101 JUMPI PUSH3 0x100 PUSH3 0x330 JUMP JUMPDEST JUMPDEST MUL OR SWAP1 SSTORE POP TIMESTAMP PUSH1 0x0 DUP2 SWAP1 SSTORE POP DUP1 PUSH4 0xFFFFFFFF AND PUSH2 0x100 DUP2 PUSH4 0xFFFFFFFF AND DUP2 MSTORE POP POP POP POP POP POP POP POP PUSH3 0x35F JUMP JUMPDEST PUSH1 0x0 DUP1 REVERT JUMPDEST PUSH1 0x0 PUSH20 0xFFFFFFFFFFFFFFFFFFFFFFFFFFFFFFFFFFFFFFFF DUP3 AND SWAP1 POP SWAP2 SWAP1 POP JUMP JUMPDEST PUSH1 0x0 PUSH3 0x160 DUP3 PUSH3 0x133 JUMP JUMPDEST SWAP1 POP SWAP2 SWAP1 POP JUMP JUMPDEST PUSH3 0x172 DUP2 PUSH3 0x153 JUMP JUMPDEST DUP2 EQ PUSH3 0x17E JUMPI PUSH1 0x0 DUP1 REVERT JUMPDEST POP JUMP JUMPDEST PUSH1 0x0 DUP2 MLOAD SWAP1 POP PUSH3 0x192 DUP2 PUSH3 0x167 JUMP JUMPDEST SWAP3 SWAP2 POP POP JUMP JUMPDEST PUSH1 0x0 PUSH8 0xFFFFFFFFFFFFFFFF DUP3 AND SWAP1 POP SWAP2 SWAP1 POP JUMP JUMPDEST PUSH3 0x1B7 DUP2 PUSH3 0x198 JUMP JUMPDEST DUP2 EQ PUSH3 0x1C3 JUMPI PUSH1 0x0 DUP1 REVERT JUMPDEST POP JUMP JUMPDEST PUSH1 0x0 DUP2 MLOAD SWAP1 POP PUSH3 0x1D7 DUP2 PUSH3 0x1AC JUMP JUMPDEST SWAP3 SWAP2 POP POP JUMP JUMPDEST PUSH1 0x0 DUP2 SWAP1 POP SWAP2 SWAP1 POP JUMP JUMPDEST PUSH3 0x1F2 DUP2 PUSH3 0x1DD JUMP JUMPDEST DUP2 EQ PUSH3 0x1FE JUMPI PUSH1 0x0 DUP1 REVERT JUMPDEST POP JUMP JUMPDEST PUSH1 0x0 DUP2 MLOAD SWAP1 POP PUSH3 0x212 DUP2 PUSH3 0x1E7 JUMP JUMPDEST SWAP3 SWAP2 POP POP JUMP JUMPDEST PUSH1 0x0 DUP2 SWAP1 POP SWAP2 SWAP1 POP JUMP JUMPDEST PUSH3 0x22D DUP2 PUSH3 0x218 JUMP JUMPDEST DUP2 EQ PUSH3 0x239 JUMPI PUSH1 0x0 DUP1 REVERT JUMPDEST POP JUMP JUMPDEST PUSH1 0x0 DUP2 MLOAD SWAP1 POP PUSH3 0x24D DUP2 PUSH3 0x222 JUMP JUMPDEST SWAP3 SWAP2 POP POP JUMP JUMPDEST PUSH1 0x0 PUSH4 0xFFFFFFFF DUP3 AND SWAP1 POP SWAP2 SWAP1 POP JUMP JUMPDEST PUSH3 0x26E DUP2 PUSH3 0x253 JUMP JUMPDEST DUP2 EQ PUSH3 0x27A JUMPI PUSH1 0x0 DUP1 REVERT JUMPDEST POP JUMP JUMPDEST PUSH1 0x0 DUP2 MLOAD SWAP1 POP PUSH3 0x28E DUP2 PUSH3 0x263 JUMP JUMPDEST SWAP3 SWAP2 POP POP JUMP JUMPDEST PUSH1 0x0 DUP1 PUSH1 0x0 DUP1 PUSH1 0x0 DUP1 PUSH1 0xC0 DUP8 DUP10 SUB SLT ISZERO PUSH3 0x2B4 JUMPI PUSH3 0x2B3 PUSH3 0x12E JUMP JUMPDEST JUMPDEST PUSH1 0x0 PUSH3 0x2C4 DUP10 DUP3 DUP11 ADD PUSH3 0x181 JUMP JUMPDEST SWAP7 POP POP PUSH1 0x20 PUSH3 0x2D7 DUP10 DUP3 DUP11 ADD PUSH3 0x1C6 JUMP JUMPDEST SWAP6 POP POP PUSH1 0x40 PUSH3 0x2EA DUP10 DUP3 DUP11 ADD PUSH3 0x201 JUMP JUMPDEST SWAP5 POP POP PUSH1 0x60 PUSH3 0x2FD DUP10 DUP3 DUP11 ADD PUSH3 0x23C JUMP JUMPDEST SWAP4 POP POP PUSH1 0x80 PUSH3 0x310 DUP10 DUP3 DUP11 ADD PUSH3 0x23C JUMP JUMPDEST SWAP3 POP POP PUSH1 0xA0 PUSH3 0x323 DUP10 DUP3 DUP11 ADD PUSH3 0x27D JUMP JUMPDEST SWAP2 POP POP SWAP3 SWAP6 POP SWAP3 SWAP6 POP SWAP3 SWAP6 JUMP JUMPDEST PUSH32 0x4E487B7100000000000000000000000000000000000000000000000000000000 PUSH1 0x0 MSTORE PUSH1 0x21 PUSH1 0x4 MSTORE PUSH1 0x24 PUSH1 0x0 REVERT JUMPDEST PUSH1 0x80 MLOAD PUSH1 0xA0 MLOAD PUSH1 0xC0 MLOAD PUSH1 0xE0 MLOAD PUSH2 0x100 MLOAD PUSH2 0x120 MLOAD PUSH2 0x140 MLOAD PUSH2 0x1472 PUSH3 0x3CF PUSH1 0x0 CODECOPY PUSH1 0x0 DUP2 DUP2 PUSH2 0x2FA ADD MSTORE PUSH2 0x73E ADD MSTORE PUSH1 0x0 DUP2 DUP2 PUSH2 0x66F ADD MSTORE PUSH2 0x718 ADD MSTORE PUSH1 0x0 PUSH2 0x516 ADD MSTORE PUSH1 0x0 PUSH2 0x4D2 ADD MSTORE PUSH1 0x0 PUSH2 0x4F3 ADD MSTORE PUSH1 0x0 PUSH2 0x496 ADD MSTORE PUSH1 0x0 DUP2 DUP2 PUSH2 0x320 ADD MSTORE PUSH2 0x374 ADD MSTORE PUSH2 0x1472 PUSH1 0x0 RETURN INVALID PUSH1 0x80 PUSH1 0x40 MSTORE PUSH1 0x4 CALLDATASIZE LT PUSH2 0xC2 JUMPI PUSH1 0x0 CALLDATALOAD PUSH1 0xE0 SHR DUP1 PUSH4 0x6B68C03C GT PUSH2 0x7F JUMPI DUP1 PUSH4 0xC1AF5785 GT PUSH2 0x59 JUMPI DUP1 PUSH4 0xC1AF5785 EQ PUSH2 0x259 JUMPI DUP1 PUSH4 0xC1C244E8 EQ PUSH2 0x263 JUMPI DUP1 PUSH4 0xE55AE4E8 EQ PUSH2 0x28E JUMPI DUP1 PUSH4 0xFD6673F5 EQ PUSH2 0x2CB JUMPI PUSH2 0xC2 JUMP JUMPDEST DUP1 PUSH4 0x6B68C03C EQ PUSH2 0x1C5 JUMPI DUP1 PUSH4 0x6E04FF0D EQ PUSH2 0x1F0 JUMPI DUP1 PUSH4 0x91AD27B4 EQ PUSH2 0x22E JUMPI PUSH2 0xC2 JUMP JUMPDEST DUP1 PUSH4 0x9BC33A7 EQ PUSH2 0xC7 JUMPI DUP1 PUSH4 0x1FE543E3 EQ PUSH2 0xF2 JUMPI DUP1 PUSH4 0x4585E33B EQ PUSH2 0x11B JUMPI DUP1 PUSH4 0x473F1DDC EQ PUSH2 0x144 JUMPI DUP1 PUSH4 0x53A2C19A EQ PUSH2 0x16F JUMPI DUP1 PUSH4 0x5F1B0FD8 EQ PUSH2 0x19A JUMPI JUMPDEST PUSH1 0x0 DUP1 REVERT JUMPDEST CALLVALUE DUP1 ISZERO PUSH2 0xD3 JUMPI PUSH1 0x0 DUP1 REVERT JUMPDEST POP PUSH2 0xDC PUSH2 0x2F6 JUMP JUMPDEST PUSH1 0x40 MLOAD PUSH2 0xE9 SWAP2 SWAP1 PUSH2 0xBFC JUMP JUMPDEST PUSH1 0x40 MLOAD DUP1 SWAP2 SUB SWAP1 RETURN JUMPDEST CALLVALUE DUP1 ISZERO PUSH2 0xFE JUMPI PUSH1 0x0 DUP1 REVERT JUMPDEST POP PUSH2 0x119 PUSH1 0x4 DUP1 CALLDATASIZE SUB DUP2 ADD SWAP1 PUSH2 0x114 SWAP2 SWAP1 PUSH2 0xDB0 JUMP JUMPDEST PUSH2 0x31E JUMP JUMPDEST STOP JUMPDEST CALLVALUE DUP1 ISZERO PUSH2 0x127 JUMPI PUSH1 0x0 DUP1 REVERT JUMPDEST POP PUSH2 0x142 PUSH1 0x4 DUP1 CALLDATASIZE SUB DUP2 ADD SWAP1 PUSH2 0x13D SWAP2 SWAP1 PUSH2 0xE67 JUMP JUMPDEST PUSH2 0x3DE JUMP JUMPDEST STOP JUMPDEST CALLVALUE DUP1 ISZERO PUSH2 0x150 JUMPI PUSH1 0x0 DUP1 REVERT JUMPDEST POP PUSH2 0x159 PUSH2 0x5CF JUMP JUMPDEST PUSH1 0x40 MLOAD PUSH2 0x166 SWAP2 SWAP1 PUSH2 0xEF5 JUMP JUMPDEST PUSH1 0x40 MLOAD DUP1 SWAP2 SUB SWAP1 RETURN JUMPDEST CALLVALUE DUP1 ISZERO PUSH2 0x17B JUMPI PUSH1 0x0 DUP1 REVERT JUMPDEST POP PUSH2 0x184 PUSH2 0x5F9 JUMP JUMPDEST PUSH1 0x40 MLOAD PUSH2 0x191 SWAP2 SWAP1 PUSH2 0xBFC JUMP JUMPDEST PUSH1 0x40 MLOAD DUP1 SWAP2 SUB SWAP1 RETURN JUMPDEST CALLVALUE DUP1 ISZERO PUSH2 0x1A6 JUMPI PUSH1 0x0 DUP1 REVERT JUMPDEST POP PUSH2 0x1AF PUSH2 0x608 JUMP JUMPDEST PUSH1 0x40 MLOAD PUSH2 0x1BC SWAP2 SWAP1 PUSH2 0xBFC JUMP JUMPDEST PUSH1 0x40 MLOAD DUP1 SWAP2 SUB SWAP1 RETURN JUMPDEST CALLVALUE DUP1 ISZERO PUSH2 0x1D1 JUMPI PUSH1 0x0 DUP1 REVERT JUMPDEST POP PUSH2 0x1DA PUSH2 0x615 JUMP JUMPDEST PUSH1 0x40 MLOAD PUSH2 0x1E7 SWAP2 SWAP1 PUSH2 0xF87 JUMP JUMPDEST PUSH1 0x40 MLOAD DUP1 SWAP2 SUB SWAP1 RETURN JUMPDEST CALLVALUE DUP1 ISZERO PUSH2 0x1FC JUMPI PUSH1 0x0 DUP1 REVERT JUMPDEST POP PUSH2 0x217 PUSH1 0x4 DUP1 CALLDATASIZE SUB DUP2 ADD SWAP1 PUSH2 0x212 SWAP2 SWAP1 PUSH2 0x1057 JUMP JUMPDEST PUSH2 0x62C JUMP JUMPDEST PUSH1 0x40 MLOAD PUSH2 0x225 SWAP3 SWAP2 SWAP1 PUSH2 0x113A JUMP JUMPDEST PUSH1 0x40 MLOAD DUP1 SWAP2 SUB SWAP1 RETURN JUMPDEST CALLVALUE DUP1 ISZERO PUSH2 0x23A JUMPI PUSH1 0x0 DUP1 REVERT JUMPDEST POP PUSH2 0x243 PUSH2 0x714 JUMP JUMPDEST PUSH1 0x40 MLOAD PUSH2 0x250 SWAP2 SWAP1 PUSH2 0xBFC JUMP JUMPDEST PUSH1 0x40 MLOAD DUP1 SWAP2 SUB SWAP1 RETURN JUMPDEST PUSH2 0x261 PUSH2 0x73C JUMP JUMPDEST STOP JUMPDEST CALLVALUE DUP1 ISZERO PUSH2 0x26F JUMPI PUSH1 0x0 DUP1 REVERT JUMPDEST POP PUSH2 0x278 PUSH2 0x8AB JUMP JUMPDEST PUSH1 0x40 MLOAD PUSH2 0x285 SWAP2 SWAP1 PUSH2 0xBFC JUMP JUMPDEST PUSH1 0x40 MLOAD DUP1 SWAP2 SUB SWAP1 RETURN JUMPDEST CALLVALUE DUP1 ISZERO PUSH2 0x29A JUMPI PUSH1 0x0 DUP1 REVERT JUMPDEST POP PUSH2 0x2B5 PUSH1 0x4 DUP1 CALLDATASIZE SUB DUP2 ADD SWAP1 PUSH2 0x2B0 SWAP2 SWAP1 PUSH2 0x116A JUMP JUMPDEST PUSH2 0x8B4 JUMP JUMPDEST PUSH1 0x40 MLOAD PUSH2 0x2C2 SWAP2 SWAP1 PUSH2 0xEF5 JUMP JUMPDEST PUSH1 0x40 MLOAD DUP1 SWAP2 SUB SWAP1 RETURN JUMPDEST CALLVALUE DUP1 ISZERO PUSH2 0x2D7 JUMPI PUSH1 0x0 DUP1 REVERT JUMPDEST POP PUSH2 0x2E0 PUSH2 0x8FC JUMP JUMPDEST PUSH1 0x40 MLOAD PUSH2 0x2ED SWAP2 SWAP1 PUSH2 0xBFC JUMP JUMPDEST PUSH1 0x40 MLOAD DUP1 SWAP2 SUB SWAP1 RETURN JUMPDEST PUSH1 0x0 PUSH32 0x0 SWAP1 POP SWAP1 JUMP JUMPDEST PUSH32 0x0 PUSH20 0xFFFFFFFFFFFFFFFFFFFFFFFFFFFFFFFFFFFFFFFF AND CALLER PUSH20 0xFFFFFFFFFFFFFFFFFFFFFFFFFFFFFFFFFFFFFFFF AND EQ PUSH2 0x3D0 JUMPI CALLER PUSH32 0x0 PUSH1 0x40 MLOAD PUSH32 0x1CF993F400000000000000000000000000000000000000000000000000000000 DUP2 MSTORE PUSH1 0x4 ADD PUSH2 0x3C7 SWAP3 SWAP2 SWAP1 PUSH2 0x1197 JUMP JUMPDEST PUSH1 0x40 MLOAD DUP1 SWAP2 SUB SWAP1 REVERT JUMPDEST PUSH2 0x3DA DUP3 DUP3 PUSH2 0x909 JUMP JUMPDEST POP POP JUMP JUMPDEST PUSH1 0x0 PUSH2 0x3F8 PUSH1 0x40 MLOAD DUP1 PUSH1 0x20 ADD PUSH1 0x40 MSTORE DUP1 PUSH1 0x0 DUP2 MSTORE POP PUSH2 0x62C JUMP JUMPDEST POP SWAP1 POP DUP1 PUSH2 0x467 JUMPI SELFBALANCE PUSH1 0x2 DUP1 SLOAD SWAP1 POP PUSH1 0x3 PUSH1 0x0 SWAP1 SLOAD SWAP1 PUSH2 0x100 EXP SWAP1 DIV PUSH1 0xFF AND PUSH1 0x1 DUP2 GT ISZERO PUSH2 0x429 JUMPI PUSH2 0x428 PUSH2 0xF10 JUMP JUMPDEST JUMPDEST PUSH1 0x40 MLOAD PUSH32 0x6E195F2500000000000000000000000000000000000000000000000000000000 DUP2 MSTORE PUSH1 0x4 ADD PUSH2 0x45E SWAP4 SWAP3 SWAP2 SWAP1 PUSH2 0x11C0 JUMP JUMPDEST PUSH1 0x40 MLOAD DUP1 SWAP2 SUB SWAP1 REVERT JUMPDEST PUSH1 0x1 PUSH1 0x3 PUSH1 0x0 PUSH2 0x100 EXP DUP2 SLOAD DUP2 PUSH1 0xFF MUL NOT AND SWAP1 DUP4 PUSH1 0x1 DUP2 GT ISZERO PUSH2 0x48D JUMPI PUSH2 0x48C PUSH2 0xF10 JUMP JUMPDEST JUMPDEST MUL OR SWAP1 SSTORE POP PUSH1 0x0 PUSH32 0x0 PUSH20 0xFFFFFFFFFFFFFFFFFFFFFFFFFFFFFFFFFFFFFFFF AND PUSH4 0x5D3B1D30 PUSH32 0x0 PUSH32 0x0 PUSH1 0x3 PUSH32 0x0 PUSH1 0x1 PUSH1 0x40 MLOAD DUP7 PUSH4 0xFFFFFFFF AND PUSH1 0xE0 SHL DUP2 MSTORE PUSH1 0x4 ADD PUSH2 0x557 SWAP6 SWAP5 SWAP4 SWAP3 SWAP2 SWAP1 PUSH2 0x126F JUMP JUMPDEST PUSH1 0x20 PUSH1 0x40 MLOAD DUP1 DUP4 SUB DUP2 PUSH1 0x0 DUP8 GAS CALL ISZERO DUP1 ISZERO PUSH2 0x576 JUMPI RETURNDATASIZE PUSH1 0x0 DUP1 RETURNDATACOPY RETURNDATASIZE PUSH1 0x0 REVERT JUMPDEST POP POP POP POP PUSH1 0x40 MLOAD RETURNDATASIZE PUSH1 0x1F NOT PUSH1 0x1F DUP3 ADD AND DUP3 ADD DUP1 PUSH1 0x40 MSTORE POP DUP2 ADD SWAP1 PUSH2 0x59A SWAP2 SWAP1 PUSH2 0x12D7 JUMP JUMPDEST SWAP1 POP DUP1 PUSH32 0xEBF56642252004C18A776F30D528E7A0CE8C5DB14B6596FB6550F630C8A24C6C PUSH1 0x40 MLOAD PUSH1 0x40 MLOAD DUP1 SWAP2 SUB SWAP1 LOG2 POP POP POP POP JUMP JUMPDEST PUSH1 0x0 PUSH1 0x1 PUSH1 0x0 SWAP1 SLOAD SWAP1 PUSH2 0x100 EXP SWAP1 DIV PUSH20 0xFFFFFFFFFFFFFFFFFFFFFFFFFFFFFFFFFFFFFFFF AND SWAP1 POP SWAP1 JUMP JUMPDEST PUSH1 0x0 PUSH1 0x1 PUSH4 0xFFFFFFFF AND SWAP1 POP SWAP1 JUMP JUMPDEST PUSH1 0x0 PUSH1 0x3 PUSH2 0xFFFF AND SWAP1 POP SWAP1 JUMP JUMPDEST PUSH1 0x0 PUSH1 0x3 PUSH1 0x0 SWAP1 SLOAD SWAP1 PUSH2 0x100 EXP SWAP1 DIV PUSH1 0xFF AND SWAP1 POP SWAP1 JUMP JUMPDEST PUSH1 0x0 PUSH1 0x60 PUSH1 0x0 PUSH1 0x3 PUSH1 0x0 SWAP1 SLOAD SWAP1 PUSH2 0x100 EXP SWAP1 DIV PUSH1 0xFF AND PUSH1 0x1 DUP2 GT ISZERO PUSH2 0x654 JUMPI PUSH2 0x653 PUSH2 0xF10 JUMP JUMPDEST JUMPDEST PUSH1 0x0 PUSH1 0x1 DUP2 GT ISZERO PUSH2 0x668 JUMPI PUSH2 0x667 PUSH2 0xF10 JUMP JUMPDEST JUMPDEST EQ SWAP1 POP PUSH1 0x0 PUSH32 0x0 PUSH1 0x0 SLOAD TIMESTAMP PUSH2 0x69C SWAP2 SWAP1 PUSH2 0x1333 JUMP JUMPDEST GT SWAP1 POP PUSH1 0x0 DUP1 PUSH1 0x2 DUP1 SLOAD SWAP1 POP GT SWAP1 POP PUSH1 0x0 DUP1 SELFBALANCE GT SWAP1 POP DUP3 DUP1 ISZERO PUSH2 0x6BC JUMPI POP DUP4 JUMPDEST DUP1 ISZERO PUSH2 0x6C5 JUMPI POP DUP1 JUMPDEST DUP1 ISZERO PUSH2 0x6CE JUMPI POP DUP2 JUMPDEST SWAP6 POP DUP6 PUSH1 0x40 MLOAD DUP1 PUSH1 0x40 ADD PUSH1 0x40 MSTORE DUP1 PUSH1 0x3 DUP2 MSTORE PUSH1 0x20 ADD PUSH32 0x3078300000000000000000000000000000000000000000000000000000000000 DUP2 MSTORE POP SWAP6 POP SWAP6 POP POP POP POP POP SWAP2 POP SWAP2 JUMP JUMPDEST PUSH1 0x0 PUSH32 0x0 SWAP1 POP SWAP1 JUMP JUMPDEST PUSH32 0x0 CALLVALUE LT ISZERO PUSH2 0x796 JUMPI PUSH1 0x40 MLOAD PUSH32 0xA4078C2400000000000000000000000000000000000000000000000000000000 DUP2 MSTORE PUSH1 0x4 ADD PUSH1 0x40 MLOAD DUP1 SWAP2 SUB SWAP1 REVERT JUMPDEST PUSH1 0x0 PUSH1 0x1 DUP2 GT ISZERO PUSH2 0x7AA JUMPI PUSH2 0x7A9 PUSH2 0xF10 JUMP JUMPDEST JUMPDEST PUSH1 0x3 PUSH1 0x0 SWAP1 SLOAD SWAP1 PUSH2 0x100 EXP SWAP1 DIV PUSH1 0xFF AND PUSH1 0x1 DUP2 GT ISZERO PUSH2 0x7CC JUMPI PUSH2 0x7CB PUSH2 0xF10 JUMP JUMPDEST JUMPDEST EQ PUSH2 0x803 JUMPI PUSH1 0x40 MLOAD PUSH32 0x823EA8BB00000000000000000000000000000000000000000000000000000000 DUP2 MSTORE PUSH1 0x4 ADD PUSH1 0x40 MLOAD DUP1 SWAP2 SUB SWAP1 REVERT JUMPDEST PUSH1 0x2 CALLER SWAP1 DUP1 PUSH1 0x1 DUP2 SLOAD ADD DUP1 DUP3 SSTORE DUP1 SWAP2 POP POP PUSH1 0x1 SWAP1 SUB SWAP1 PUSH1 0x0 MSTORE PUSH1 0x20 PUSH1 0x0 KECCAK256 ADD PUSH1 0x0 SWAP1 SWAP2 SWAP1 SWAP2 SWAP1 SWAP2 PUSH2 0x100 EXP DUP2 SLOAD DUP2 PUSH20 0xFFFFFFFFFFFFFFFFFFFFFFFFFFFFFFFFFFFFFFFF MUL NOT AND SWAP1 DUP4 PUSH20 0xFFFFFFFFFFFFFFFFFFFFFFFFFFFFFFFFFFFFFFFF AND MUL OR SWAP1 SSTORE POP CALLER PUSH20 0xFFFFFFFFFFFFFFFFFFFFFFFFFFFFFFFFFFFFFFFF AND PUSH32 0x1D64FB5BA9F2548C5B98468D58F25B87B9E866AFEE0122E92D9FE722BF85076C PUSH1 0x40 MLOAD PUSH1 0x40 MLOAD DUP1 SWAP2 SUB SWAP1 LOG2 JUMP JUMPDEST PUSH1 0x0 DUP1 SLOAD SWAP1 POP SWAP1 JUMP JUMPDEST PUSH1 0x0 PUSH1 0x2 DUP3 DUP2 SLOAD DUP2 LT PUSH2 0x8CA JUMPI PUSH2 0x8C9 PUSH2 0x1367 JUMP JUMPDEST JUMPDEST SWAP1 PUSH1 0x0 MSTORE PUSH1 0x20 PUSH1 0x0 KECCAK256 ADD PUSH1 0x0 SWAP1 SLOAD SWAP1 PUSH2 0x100 EXP SWAP1 DIV PUSH20 0xFFFFFFFFFFFFFFFFFFFFFFFFFFFFFFFFFFFFFFFF AND SWAP1 POP SWAP2 SWAP1 POP JUMP JUMPDEST PUSH1 0x0 PUSH1 0x2 DUP1 SLOAD SWAP1 POP SWAP1 POP SWAP1 JUMP JUMPDEST PUSH1 0x0 PUSH1 0x2 DUP1 SLOAD SWAP1 POP DUP3 PUSH1 0x0 DUP2 MLOAD DUP2 LT PUSH2 0x925 JUMPI PUSH2 0x924 PUSH2 0x1367 JUMP JUMPDEST JUMPDEST PUSH1 0x20 MUL PUSH1 0x20 ADD ADD MLOAD PUSH2 0x937 SWAP2 SWAP1 PUSH2 0x13C5 JUMP JUMPDEST SWAP1 POP PUSH1 0x0 PUSH1 0x2 DUP3 DUP2 SLOAD DUP2 LT PUSH2 0x94F JUMPI PUSH2 0x94E PUSH2 0x1367 JUMP JUMPDEST JUMPDEST SWAP1 PUSH1 0x0 MSTORE PUSH1 0x20 PUSH1 0x0 KECCAK256 ADD PUSH1 0x0 SWAP1 SLOAD SWAP1 PUSH2 0x100 EXP SWAP1 DIV PUSH20 0xFFFFFFFFFFFFFFFFFFFFFFFFFFFFFFFFFFFFFFFF AND SWAP1 POP DUP1 PUSH1 0x1 PUSH1 0x0 PUSH2 0x100 EXP DUP2 SLOAD DUP2 PUSH20 0xFFFFFFFFFFFFFFFFFFFFFFFFFFFFFFFFFFFFFFFF MUL NOT AND SWAP1 DUP4 PUSH20 0xFFFFFFFFFFFFFFFFFFFFFFFFFFFFFFFFFFFFFFFF AND MUL OR SWAP1 SSTORE POP PUSH1 0x0 PUSH8 0xFFFFFFFFFFFFFFFF DUP2 GT ISZERO PUSH2 0x9D8 JUMPI PUSH2 0x9D7 PUSH2 0xC6D JUMP JUMPDEST JUMPDEST PUSH1 0x40 MLOAD SWAP1 DUP1 DUP3 MSTORE DUP1 PUSH1 0x20 MUL PUSH1 0x20 ADD DUP3 ADD PUSH1 0x40 MSTORE DUP1 ISZERO PUSH2 0xA06 JUMPI DUP2 PUSH1 0x20 ADD PUSH1 0x20 DUP3 MUL DUP1 CALLDATASIZE DUP4 CALLDATACOPY DUP1 DUP3 ADD SWAP2 POP POP SWAP1 POP JUMPDEST POP PUSH1 0x2 SWAP1 DUP1 MLOAD SWAP1 PUSH1 0x20 ADD SWAP1 PUSH2 0xA1C SWAP3 SWAP2 SWAP1 PUSH2 0xB3C JUMP JUMPDEST POP PUSH1 0x0 PUSH1 0x3 PUSH1 0x0 PUSH2 0x100 EXP DUP2 SLOAD DUP2 PUSH1 0xFF MUL NOT AND SWAP1 DUP4 PUSH1 0x1 DUP2 GT ISZERO PUSH2 0xA43 JUMPI PUSH2 0xA42 PUSH2 0xF10 JUMP JUMPDEST JUMPDEST MUL OR SWAP1 SSTORE POP TIMESTAMP PUSH1 0x0 DUP2 SWAP1 SSTORE POP PUSH1 0x0 DUP2 PUSH20 0xFFFFFFFFFFFFFFFFFFFFFFFFFFFFFFFFFFFFFFFF AND SELFBALANCE PUSH1 0x40 MLOAD PUSH2 0xA75 SWAP1 PUSH2 0x1427 JUMP JUMPDEST PUSH1 0x0 PUSH1 0x40 MLOAD DUP1 DUP4 SUB DUP2 DUP6 DUP8 GAS CALL SWAP3 POP POP POP RETURNDATASIZE DUP1 PUSH1 0x0 DUP2 EQ PUSH2 0xAB2 JUMPI PUSH1 0x40 MLOAD SWAP2 POP PUSH1 0x1F NOT PUSH1 0x3F RETURNDATASIZE ADD AND DUP3 ADD PUSH1 0x40 MSTORE RETURNDATASIZE DUP3 MSTORE RETURNDATASIZE PUSH1 0x0 PUSH1 0x20 DUP5 ADD RETURNDATACOPY PUSH2 0xAB7 JUMP JUMPDEST PUSH1 0x60 SWAP2 POP JUMPDEST POP POP SWAP1 POP DUP1 PUSH2 0xAF2 JUMPI PUSH1 0x40 MLOAD PUSH32 0x1C94012000000000000000000000000000000000000000000000000000000000 DUP2 MSTORE PUSH1 0x4 ADD PUSH1 0x40 MLOAD DUP1 SWAP2 SUB SWAP1 REVERT JUMPDEST DUP2 PUSH20 0xFFFFFFFFFFFFFFFFFFFFFFFFFFFFFFFFFFFFFFFF AND PUSH32 0x5B690EC4A06FE979403046EAEEA5B3CE38524683C3001F662C8B5A829632F7DF PUSH1 0x40 MLOAD PUSH1 0x40 MLOAD DUP1 SWAP2 SUB SWAP1 LOG2 POP POP POP POP POP JUMP JUMPDEST DUP3 DUP1 SLOAD DUP3 DUP3 SSTORE SWAP1 PUSH1 0x0 MSTORE PUSH1 0x20 PUSH1 0x0 KECCAK256 SWAP1 DUP2 ADD SWAP3 DUP3 ISZERO PUSH2 0xBB5 JUMPI SWAP2 PUSH1 0x20 MUL DUP3 ADD JUMPDEST DUP3 DUP2 GT ISZERO PUSH2 0xBB4 JUMPI DUP3 MLOAD DUP3 PUSH1 0x0 PUSH2 0x100 EXP DUP2 SLOAD DUP2 PUSH20 0xFFFFFFFFFFFFFFFFFFFFFFFFFFFFFFFFFFFFFFFF MUL NOT AND SWAP1 DUP4 PUSH20 0xFFFFFFFFFFFFFFFFFFFFFFFFFFFFFFFFFFFFFFFF AND MUL OR SWAP1 SSTORE POP SWAP2 PUSH1 0x20 ADD SWAP2 SWAP1 PUSH1 0x1 ADD SWAP1 PUSH2 0xB5C JUMP JUMPDEST JUMPDEST POP SWAP1 POP PUSH2 0xBC2 SWAP2 SWAP1 PUSH2 0xBC6 JUMP JUMPDEST POP SWAP1 JUMP JUMPDEST JUMPDEST DUP1 DUP3 GT ISZERO PUSH2 0xBDF JUMPI PUSH1 0x0 DUP2 PUSH1 0x0 SWAP1 SSTORE POP PUSH1 0x1 ADD PUSH2 0xBC7 JUMP JUMPDEST POP SWAP1 JUMP JUMPDEST PUSH1 0x0 DUP2 SWAP1 POP SWAP2 SWAP1 POP JUMP JUMPDEST PUSH2 0xBF6 DUP2 PUSH2 0xBE3 JUMP JUMPDEST DUP3 MSTORE POP POP JUMP JUMPDEST PUSH1 0x0 PUSH1 0x20 DUP3 ADD SWAP1 POP PUSH2 0xC11 PUSH1 0x0 DUP4 ADD DUP5 PUSH2 0xBED JUMP JUMPDEST SWAP3 SWAP2 POP POP JUMP JUMPDEST PUSH1 0x0 PUSH1 0x40 MLOAD SWAP1 POP SWAP1 JUMP JUMPDEST PUSH1 0x0 DUP1 REVERT JUMPDEST PUSH1 0x0 DUP1 REVERT JUMPDEST PUSH2 0xC34 DUP2 PUSH2 0xBE3 JUMP JUMPDEST DUP2 EQ PUSH2 0xC3F JUMPI PUSH1 0x0 DUP1 REVERT JUMPDEST POP JUMP JUMPDEST PUSH1 0x0 DUP2 CALLDATALOAD SWAP1 POP PUSH2 0xC51 DUP2 PUSH2 0xC2B JUMP JUMPDEST SWAP3 SWAP2 POP POP JUMP JUMPDEST PUSH1 0x0 DUP1 REVERT JUMPDEST PUSH1 0x0 PUSH1 0x1F NOT PUSH1 0x1F DUP4 ADD AND SWAP1 POP SWAP2 SWAP1 POP JUMP JUMPDEST PUSH32 0x4E487B7100000000000000000000000000000000000000000000000000000000 PUSH1 0x0 MSTORE PUSH1 0x41 PUSH1 0x4 MSTORE PUSH1 0x24 PUSH1 0x0 REVERT JUMPDEST PUSH2 0xCA5 DUP3 PUSH2 0xC5C JUMP JUMPDEST DUP2 ADD DUP2 DUP2 LT PUSH8 0xFFFFFFFFFFFFFFFF DUP3 GT OR ISZERO PUSH2 0xCC4 JUMPI PUSH2 0xCC3 PUSH2 0xC6D JUMP JUMPDEST JUMPDEST DUP1 PUSH1 0x40 MSTORE POP POP POP JUMP JUMPDEST PUSH1 0x0 PUSH2 0xCD7 PUSH2 0xC17 JUMP JUMPDEST SWAP1 POP PUSH2 0xCE3 DUP3 DUP3 PUSH2 0xC9C JUMP JUMPDEST SWAP2 SWAP1 POP JUMP JUMPDEST PUSH1 0x0 PUSH8 0xFFFFFFFFFFFFFFFF DUP3 GT ISZERO PUSH2 0xD03 JUMPI PUSH2 0xD02 PUSH2 0xC6D JUMP JUMPDEST JUMPDEST PUSH1 0x20 DUP3 MUL SWAP1 POP PUSH1 0x20 DUP2 ADD SWAP1 POP SWAP2 SWAP1 POP JUMP JUMPDEST PUSH1 0x0 DUP1 REVERT JUMPDEST PUSH1 0x0 PUSH2 0xD2C PUSH2 0xD27 DUP5 PUSH2 0xCE8 JUMP JUMPDEST PUSH2 0xCCD JUMP JUMPDEST SWAP1 POP DUP1 DUP4 DUP3 MSTORE PUSH1 0x20 DUP3 ADD SWAP1 POP PUSH1 0x20 DUP5 MUL DUP4 ADD DUP6 DUP2 GT ISZERO PUSH2 0xD4F JUMPI PUSH2 0xD4E PUSH2 0xD14 JUMP JUMPDEST JUMPDEST DUP4 JUMPDEST DUP2 DUP2 LT ISZERO PUSH2 0xD78 JUMPI DUP1 PUSH2 0xD64 DUP9 DUP3 PUSH2 0xC42 JUMP JUMPDEST DUP5 MSTORE PUSH1 0x20 DUP5 ADD SWAP4 POP POP PUSH1 0x20 DUP2 ADD SWAP1 POP PUSH2 0xD51 JUMP JUMPDEST POP POP POP SWAP4 SWAP3 POP POP POP JUMP JUMPDEST PUSH1 0x0 DUP3 PUSH1 0x1F DUP4 ADD SLT PUSH2 0xD97 JUMPI PUSH2 0xD96 PUSH2 0xC57 JUMP JUMPDEST JUMPDEST DUP2 CALLDATALOAD PUSH2 0xDA7 DUP5 DUP3 PUSH1 0x20 DUP7 ADD PUSH2 0xD19 JUMP JUMPDEST SWAP2 POP POP SWAP3 SWAP2 POP POP JUMP JUMPDEST PUSH1 0x0 DUP1 PUSH1 0x40 DUP4 DUP6 SUB SLT ISZERO PUSH2 0xDC7 JUMPI PUSH2 0xDC6 PUSH2 0xC21 JUMP JUMPDEST JUMPDEST PUSH1 0x0 PUSH2 0xDD5 DUP6 DUP3 DUP7 ADD PUSH2 0xC42 JUMP JUMPDEST SWAP3 POP POP PUSH1 0x20 DUP4 ADD CALLDATALOAD PUSH8 0xFFFFFFFFFFFFFFFF DUP2 GT ISZERO PUSH2 0xDF6 JUMPI PUSH2 0xDF5 PUSH2 0xC26 JUMP JUMPDEST JUMPDEST PUSH2 0xE02 DUP6 DUP3 DUP7 ADD PUSH2 0xD82 JUMP JUMPDEST SWAP2 POP POP SWAP3 POP SWAP3 SWAP1 POP JUMP JUMPDEST PUSH1 0x0 DUP1 REVERT JUMPDEST PUSH1 0x0 DUP1 DUP4 PUSH1 0x1F DUP5 ADD SLT PUSH2 0xE27 JUMPI PUSH2 0xE26 PUSH2 0xC57 JUMP JUMPDEST JUMPDEST DUP3 CALLDATALOAD SWAP1 POP PUSH8 0xFFFFFFFFFFFFFFFF DUP2 GT ISZERO PUSH2 0xE44 JUMPI PUSH2 0xE43 PUSH2 0xE0C JUMP JUMPDEST JUMPDEST PUSH1 0x20 DUP4 ADD SWAP2 POP DUP4 PUSH1 0x1 DUP3 MUL DUP4 ADD GT ISZERO PUSH2 0xE60 JUMPI PUSH2 0xE5F PUSH2 0xD14 JUMP JUMPDEST JUMPDEST SWAP3 POP SWAP3 SWAP1 POP JUMP JUMPDEST PUSH1 0x0 DUP1 PUSH1 0x20 DUP4 DUP6 SUB SLT ISZERO PUSH2 0xE7E JUMPI PUSH2 0xE7D PUSH2 0xC21 JUMP JUMPDEST JUMPDEST PUSH1 0x0 DUP4 ADD CALLDATALOAD PUSH8 0xFFFFFFFFFFFFFFFF DUP2 GT ISZERO PUSH2 0xE9C JUMPI PUSH2 0xE9B PUSH2 0xC26 JUMP JUMPDEST JUMPDEST PUSH2 0xEA8 DUP6 DUP3 DUP7 ADD PUSH2 0xE11 JUMP JUMPDEST SWAP3 POP SWAP3 POP POP SWAP3 POP SWAP3 SWAP1 POP JUMP JUMPDEST PUSH1 0x0 PUSH20 0xFFFFFFFFFFFFFFFFFFFFFFFFFFFFFFFFFFFFFFFF DUP3 AND SWAP1 POP SWAP2 SWAP1 POP JUMP JUMPDEST PUSH1 0x0 PUSH2 0xEDF DUP3 PUSH2 0xEB4 JUMP JUMPDEST SWAP1 POP SWAP2 SWAP1 POP JUMP JUMPDEST PUSH2 0xEEF DUP2 PUSH2 0xED4 JUMP JUMPDEST DUP3 MSTORE POP POP JUMP JUMPDEST PUSH1 0x0 PUSH1 0x20 DUP3 ADD SWAP1 POP PUSH2 0xF0A PUSH1 0x0 DUP4 ADD DUP5 PUSH2 0xEE6 JUMP JUMPDEST SWAP3 SWAP2 POP POP JUMP JUMPDEST PUSH32 0x4E487B7100000000000000000000000000000000000000000000000000000000 PUSH1 0x0 MSTORE PUSH1 0x21 PUSH1 0x4 MSTORE PUSH1 0x24 PUSH1 0x0 REVERT JUMPDEST PUSH1 0x2 DUP2 LT PUSH2 0xF50 JUMPI PUSH2 0xF4F PUSH2 0xF10 JUMP JUMPDEST JUMPDEST POP JUMP JUMPDEST PUSH1 0x0 DUP2 SWAP1 POP PUSH2 0xF61 DUP3 PUSH2 0xF3F JUMP JUMPDEST SWAP2 SWAP1 POP JUMP JUMPDEST PUSH1 0x0 PUSH2 0xF71 DUP3 PUSH2 0xF53 JUMP JUMPDEST SWAP1 POP SWAP2 SWAP1 POP JUMP JUMPDEST PUSH2 0xF81 DUP2 PUSH2 0xF66 JUMP JUMPDEST DUP3 MSTORE POP POP JUMP JUMPDEST PUSH1 0x0 PUSH1 0x20 DUP3 ADD SWAP1 POP PUSH2 0xF9C PUSH1 0x0 DUP4 ADD DUP5 PUSH2 0xF78 JUMP JUMPDEST SWAP3 SWAP2 POP POP JUMP JUMPDEST PUSH1 0x0 DUP1 REVERT JUMPDEST PUSH1 0x0 PUSH8 0xFFFFFFFFFFFFFFFF DUP3 GT ISZERO PUSH2 0xFC2 JUMPI PUSH2 0xFC1 PUSH2 0xC6D JUMP JUMPDEST JUMPDEST PUSH2 0xFCB DUP3 PUSH2 0xC5C JUMP JUMPDEST SWAP1 POP PUSH1 0x20 DUP2 ADD SWAP1 POP SWAP2 SWAP1 POP JUMP JUMPDEST DUP3 DUP2 DUP4 CALLDATACOPY PUSH1 0x0 DUP4 DUP4 ADD MSTORE POP POP POP JUMP JUMPDEST PUSH1 0x0 PUSH2 0xFFA PUSH2 0xFF5 DUP5 PUSH2 0xFA7 JUMP JUMPDEST PUSH2 0xCCD JUMP JUMPDEST SWAP1 POP DUP3 DUP2 MSTORE PUSH1 0x20 DUP2 ADD DUP5 DUP5 DUP5 ADD GT ISZERO PUSH2 0x1016 JUMPI PUSH2 0x1015 PUSH2 0xFA2 JUMP JUMPDEST JUMPDEST PUSH2 0x1021 DUP5 DUP3 DUP6 PUSH2 0xFD8 JUMP JUMPDEST POP SWAP4 SWAP3 POP POP POP JUMP JUMPDEST PUSH1 0x0 DUP3 PUSH1 0x1F DUP4 ADD SLT PUSH2 0x103E JUMPI PUSH2 0x103D PUSH2 0xC57 JUMP JUMPDEST JUMPDEST DUP2 CALLDATALOAD PUSH2 0x104E DUP5 DUP3 PUSH1 0x20 DUP7 ADD PUSH2 0xFE7 JUMP JUMPDEST SWAP2 POP POP SWAP3 SWAP2 POP POP JUMP JUMPDEST PUSH1 0x0 PUSH1 0x20 DUP3 DUP5 SUB SLT ISZERO PUSH2 0x106D JUMPI PUSH2 0x106C PUSH2 0xC21 JUMP JUMPDEST JUMPDEST PUSH1 0x0 DUP3 ADD CALLDATALOAD PUSH8 0xFFFFFFFFFFFFFFFF DUP2 GT ISZERO PUSH2 0x108B JUMPI PUSH2 0x108A PUSH2 0xC26 JUMP JUMPDEST JUMPDEST PUSH2 0x1097 DUP5 DUP3 DUP6 ADD PUSH2 0x1029 JUMP JUMPDEST SWAP2 POP POP SWAP3 SWAP2 POP POP JUMP JUMPDEST PUSH1 0x0 DUP2 ISZERO ISZERO SWAP1 POP SWAP2 SWAP1 POP JUMP JUMPDEST PUSH2 0x10B5 DUP2 PUSH2 0x10A0 JUMP JUMPDEST DUP3 MSTORE POP POP JUMP JUMPDEST PUSH1 0x0 DUP2 MLOAD SWAP1 POP SWAP2 SWAP1 POP JUMP JUMPDEST PUSH1 0x0 DUP3 DUP3 MSTORE PUSH1 0x20 DUP3 ADD SWAP1 POP SWAP3 SWAP2 POP POP JUMP JUMPDEST PUSH1 0x0 JUMPDEST DUP4 DUP2 LT ISZERO PUSH2 0x10F5 JUMPI DUP1 DUP3 ADD MLOAD DUP2 DUP5 ADD MSTORE PUSH1 0x20 DUP2 ADD SWAP1 POP PUSH2 0x10DA JUMP JUMPDEST PUSH1 0x0 DUP5 DUP5 ADD MSTORE POP POP POP POP JUMP JUMPDEST PUSH1 0x0 PUSH2 0x110C DUP3 PUSH2 0x10BB JUMP JUMPDEST PUSH2 0x1116 DUP2 DUP6 PUSH2 0x10C6 JUMP JUMPDEST SWAP4 POP PUSH2 0x1126 DUP2 DUP6 PUSH1 0x20 DUP7 ADD PUSH2 0x10D7 JUMP JUMPDEST PUSH2 0x112F DUP2 PUSH2 0xC5C JUMP JUMPDEST DUP5 ADD SWAP2 POP POP SWAP3 SWAP2 POP POP JUMP JUMPDEST PUSH1 0x0 PUSH1 0x40 DUP3 ADD SWAP1 POP PUSH2 0x114F PUSH1 0x0 DUP4 ADD DUP6 PUSH2 0x10AC JUMP JUMPDEST DUP2 DUP2 SUB PUSH1 0x20 DUP4 ADD MSTORE PUSH2 0x1161 DUP2 DUP5 PUSH2 0x1101 JUMP JUMPDEST SWAP1 POP SWAP4 SWAP3 POP POP POP JUMP JUMPDEST PUSH1 0x0 PUSH1 0x20 DUP3 DUP5 SUB SLT ISZERO PUSH2 0x1180 JUMPI PUSH2 0x117F PUSH2 0xC21 JUMP JUMPDEST JUMPDEST PUSH1 0x0 PUSH2 0x118E DUP5 DUP3 DUP6 ADD PUSH2 0xC42 JUMP JUMPDEST SWAP2 POP POP SWAP3 SWAP2 POP POP JUMP JUMPDEST PUSH1 0x0 PUSH1 0x40 DUP3 ADD SWAP1 POP PUSH2 0x11AC PUSH1 0x0 DUP4 ADD DUP6 PUSH2 0xEE6 JUMP JUMPDEST PUSH2 0x11B9 PUSH1 0x20 DUP4 ADD DUP5 PUSH2 0xEE6 JUMP JUMPDEST SWAP4 SWAP3 POP POP POP JUMP JUMPDEST PUSH1 0x0 PUSH1 0x60 DUP3 ADD SWAP1 POP PUSH2 0x11D5 PUSH1 0x0 DUP4 ADD DUP7 PUSH2 0xBED JUMP JUMPDEST PUSH2 0x11E2 PUSH1 0x20 DUP4 ADD DUP6 PUSH2 0xBED JUMP JUMPDEST PUSH2 0x11EF PUSH1 0x40 DUP4 ADD DUP5 PUSH2 0xBED JUMP JUMPDEST SWAP5 SWAP4 POP POP POP POP JUMP JUMPDEST PUSH1 0x0 DUP2 SWAP1 POP SWAP2 SWAP1 POP JUMP JUMPDEST PUSH2 0x120A DUP2 PUSH2 0x11F7 JUMP JUMPDEST DUP3 MSTORE POP POP JUMP JUMPDEST PUSH1 0x0 PUSH8 0xFFFFFFFFFFFFFFFF DUP3 AND SWAP1 POP SWAP2 SWAP1 POP JUMP JUMPDEST PUSH2 0x122D DUP2 PUSH2 0x1210 JUMP JUMPDEST DUP3 MSTORE POP POP JUMP JUMPDEST PUSH1 0x0 PUSH2 0xFFFF DUP3 AND SWAP1 POP SWAP2 SWAP1 POP JUMP JUMPDEST PUSH2 0x124A DUP2 PUSH2 0x1233 JUMP JUMPDEST DUP3 MSTORE POP POP JUMP JUMPDEST PUSH1 0x0 PUSH4 0xFFFFFFFF DUP3 AND SWAP1 POP SWAP2 SWAP1 POP JUMP JUMPDEST PUSH2 0x1269 DUP2 PUSH2 0x1250 JUMP JUMPDEST DUP3 MSTORE POP POP JUMP JUMPDEST PUSH1 0x0 PUSH1 0xA0 DUP3 ADD SWAP1 POP PUSH2 0x1284 PUSH1 0x0 DUP4 ADD DUP9 PUSH2 0x1201 JUMP JUMPDEST PUSH2 0x1291 PUSH1 0x20 DUP4 ADD DUP8 PUSH2 0x1224 JUMP JUMPDEST PUSH2 0x129E PUSH1 0x40 DUP4 ADD DUP7 PUSH2 0x1241 JUMP JUMPDEST PUSH2 0x12AB PUSH1 0x60 DUP4 ADD DUP6 PUSH2 0x1260 JUMP JUMPDEST PUSH2 0x12B8 PUSH1 0x80 DUP4 ADD DUP5 PUSH2 0x1260 JUMP JUMPDEST SWAP7 SWAP6 POP POP POP POP POP POP JUMP JUMPDEST PUSH1 0x0 DUP2 MLOAD SWAP1 POP PUSH2 0x12D1 DUP2 PUSH2 0xC2B JUMP JUMPDEST SWAP3 SWAP2 POP POP JUMP JUMPDEST PUSH1 0x0 PUSH1 0x20 DUP3 DUP5 SUB SLT ISZERO PUSH2 0x12ED JUMPI PUSH2 0x12EC PUSH2 0xC21 JUMP JUMPDEST JUMPDEST PUSH1 0x0 PUSH2 0x12FB DUP5 DUP3 DUP6 ADD PUSH2 0x12C2 JUMP JUMPDEST SWAP2 POP POP SWAP3 SWAP2 POP POP JUMP JUMPDEST PUSH32 0x4E487B7100000000000000000000000000000000000000000000000000000000 PUSH1 0x0 MSTORE PUSH1 0x11 PUSH1 0x4 MSTORE PUSH1 0x24 PUSH1 0x0 REVERT JUMPDEST PUSH1 0x0 PUSH2 0x133E DUP3 PUSH2 0xBE3 JUMP JUMPDEST SWAP2 POP PUSH2 0x1349 DUP4 PUSH2 0xBE3 JUMP JUMPDEST SWAP3 POP DUP3 DUP3 SUB SWAP1 POP DUP2 DUP2 GT ISZERO PUSH2 0x1361 JUMPI PUSH2 0x1360 PUSH2 0x1304 JUMP JUMPDEST JUMPDEST SWAP3 SWAP2 POP POP JUMP JUMPDEST PUSH32 0x4E487B7100000000000000000000000000000000000000000000000000000000 PUSH1 0x0 MSTORE PUSH1 0x32 PUSH1 0x4 MSTORE PUSH1 0x24 PUSH1 0x0 REVERT JUMPDEST PUSH32 0x4E487B7100000000000000000000000000000000000000000000000000000000 PUSH1 0x0 MSTORE PUSH1 0x12 PUSH1 0x4 MSTORE PUSH1 0x24 PUSH1 0x0 REVERT JUMPDEST PUSH1 0x0 PUSH2 0x13D0 DUP3 PUSH2 0xBE3 JUMP JUMPDEST SWAP2 POP PUSH2 0x13DB DUP4 PUSH2 0xBE3 JUMP JUMPDEST SWAP3 POP DUP3 PUSH2 0x13EB JUMPI PUSH2 0x13EA PUSH2 0x1396 JUMP JUMPDEST JUMPDEST DUP3 DUP3 MOD SWAP1 POP SWAP3 SWAP2 POP POP JUMP JUMPDEST PUSH1 0x0 DUP2 SWAP1 POP SWAP3 SWAP2 POP POP JUMP JUMPDEST POP JUMP JUMPDEST PUSH1 0x0 PUSH2 0x1411 PUSH1 0x0 DUP4 PUSH2 0x13F6 JUMP JUMPDEST SWAP2 POP PUSH2 0x141C DUP3 PUSH2 0x1401 JUMP JUMPDEST PUSH1 0x0 DUP3 ADD SWAP1 POP SWAP2 SWAP1 POP JUMP JUMPDEST PUSH1 0x0 PUSH2 0x1432 DUP3 PUSH2 0x1404 JUMP JUMPDEST SWAP2 POP DUP2 SWAP1 POP SWAP2 SWAP1 POP JUMP INVALID LOG2 PUSH5 0x6970667358 0x22 SLT KECCAK256 DUP1 LOG0 PC CALLDATASIZE 0xBA DIV PUSH4 0x2D2F8663 SSTORE PUSH4 0xE790D18A 0xC0 PUSH8 0xD5324B07FC97834E 0xE6 CALL GASLIMIT 0xA7 0xCF PUSH5 0x736F6C6343 STOP ADDMOD XOR STOP CALLER "},"gasEstimates":{"creation":{"codeDepositCost":"1046800","executionCost":"infinite","totalCost":"infinite"},"external":{"checkUpkeep(bytes)":"infinite","enterLottery()":"infinite","getEntranceFee()":"infinite","getInterval()":"infinite","getLastTimeStamp()":"2481","getLotteryState()":"2591","getNumWords()":"432","getNumberOfPlayers()":"2533","getPlayer(uint256)":"5033","getRecentWinner()":"2589","getRequestConfirmations()":"454","performUpkeep(bytes)":"infinite","rawFulfillRandomWords(uint256,uint256[])":"infinite"},"internal":{"fulfillRandomWords(uint256,uint256[] memory)":"infinite"}},"methodIdentifiers":{"checkUpkeep(bytes)":"6e04ff0d","enterLottery()":"c1af5785","getEntranceFee()":"09bc33a7","getInterval()":"91ad27b4","getLastTimeStamp()":"c1c244e8","getLotteryState()":"6b68c03c","getNumWords()":"53a2c19a","getNumberOfPlayers()":"fd6673f5","getPlayer(uint256)":"e55ae4e8","getRecentWinner()":"473f1ddc","getRequestConfirmations()":"5f1b0fd8","performUpkeep(bytes)":"4585e33b","rawFulfillRandomWords(uint256,uint256[])":"1fe543e3"}},"storageLayout":{"storage":[{"astId":1352,"contract":"contracts/lottery.sol:Lottery","label":"s_lastTimeStamp","offset":0,"slot":"0","type":"t_uint256"},{"astId":1354,"contract":"contracts/lottery.sol:Lottery","label":"s_recentWinner","offset":0,"slot":"1","type":"t_address"},{"astId":1357,"contract":"contracts/lottery.sol:Lottery","label":"s_players","offset":0,"slot":"2","type":"t_array(t_address_payable)dyn_storage"},{"astId":1360,"contract":"contracts/lottery.sol:Lottery","label":"s_lotteryState","offset":0,"slot":"3","type":"t_enum(LotteryState)1331"}],"types":{"t_address":{"encoding":"inplace","label":"address","numberOfBytes":"20"},"t_address_payable":{"encoding":"inplace","label":"address payable","numberOfBytes":"20"},"t_array(t_address_payable)dyn_storage":{"base":"t_address_payable","encoding":"dynamic_array","label":"address payable[]","numberOfBytes":"32"},"t_enum(LotteryState)1331":{"encoding":"inplace","label":"enum Lottery.LotteryState","numberOfBytes":"1"},"t_uint256":{"encoding":"inplace","label":"uint256","numberOfBytes":"32"}}},"userdoc":{"kind":"user","methods":{"getLotteryState()":{"notice":"Getter Functions"}},"version":1}}}}