{
  "_format": "hh-sol-artifact-1",
  "contractName": "Lottery",
  "sourceName": "contracts/lottery.sol",
  "abi": [
    {
      "inputs": [
        {
          "internalType": "address",
          "name": "vrfCoordinatorV2",
          "type": "address"
        },
        {
          "internalType": "uint64",
          "name": "subscriptionId",
          "type": "uint64"
        },
        {
          "internalType": "bytes32",
          "name": "gasLane",
          "type": "bytes32"
        },
        {
          "internalType": "uint256",
          "name": "interval",
          "type": "uint256"
        },
        {
          "internalType": "uint256",
          "name": "entranceFee",
          "type": "uint256"
        },
        {
          "internalType": "uint32",
          "name": "callbackGasLimit",
          "type": "uint32"
        }
      ],
      "stateMutability": "nonpayable",
      "type": "constructor"
    },
    {
      "inputs": [],
      "name": "Lottery__LotteryNotOpen",
      "type": "error"
    },
    {
      "inputs": [],
      "name": "Lottery__SendMoreToEnterLottery",
      "type": "error"
    },
    {
      "inputs": [],
      "name": "Lottery__TransferFailed",
      "type": "error"
    },
    {
      "inputs": [
        {
          "internalType": "uint256",
          "name": "currentBalance",
          "type": "uint256"
        },
        {
          "internalType": "uint256",
          "name": "numPlayers",
          "type": "uint256"
        },
        {
          "internalType": "uint256",
          "name": "lotteryState",
          "type": "uint256"
        }
      ],
      "name": "Lottery__UpkeepNotNeeded",
      "type": "error"
    },
    {
      "inputs": [
        {
          "internalType": "address",
          "name": "have",
          "type": "address"
        },
        {
          "internalType": "address",
          "name": "want",
          "type": "address"
        }
      ],
      "name": "OnlyCoordinatorCanFulfill",
      "type": "error"
    },
    {
      "anonymous": false,
      "inputs": [
        {
          "indexed": true,
          "internalType": "address",
          "name": "player",
          "type": "address"
        }
      ],
      "name": "LotteryEnter",
      "type": "event"
    },
    {
      "anonymous": false,
      "inputs": [
        {
          "indexed": true,
          "internalType": "uint256",
          "name": "requestId",
          "type": "uint256"
        }
      ],
      "name": "RequestedLotteryWinner",
      "type": "event"
    },
    {
      "anonymous": false,
      "inputs": [
        {
          "indexed": true,
          "internalType": "address",
          "name": "player",
          "type": "address"
        }
      ],
      "name": "WinnerPicked",
      "type": "event"
    },
    {
      "inputs": [
        {
          "internalType": "bytes",
          "name": "",
          "type": "bytes"
        }
      ],
      "name": "checkUpkeep",
      "outputs": [
        {
          "internalType": "bool",
          "name": "upkeepNeeded",
          "type": "bool"
        },
        {
          "internalType": "bytes",
          "name": "",
          "type": "bytes"
        }
      ],
      "stateMutability": "view",
      "type": "function"
    },
    {
      "inputs": [],
      "name": "enterLottery",
      "outputs": [],
      "stateMutability": "payable",
      "type": "function"
    },
    {
      "inputs": [],
      "name": "getEntranceFee",
      "outputs": [
        {
          "internalType": "uint256",
          "name": "",
          "type": "uint256"
        }
      ],
      "stateMutability": "view",
      "type": "function"
    },
    {
      "inputs": [],
      "name": "getInterval",
      "outputs": [
        {
          "internalType": "uint256",
          "name": "",
          "type": "uint256"
        }
      ],
      "stateMutability": "view",
      "type": "function"
    },
    {
      "inputs": [],
      "name": "getLastTimeStamp",
      "outputs": [
        {
          "internalType": "uint256",
          "name": "",
          "type": "uint256"
        }
      ],
      "stateMutability": "view",
      "type": "function"
    },
    {
      "inputs": [],
      "name": "getLotteryState",
      "outputs": [
        {
          "internalType": "enum Lottery.LotteryState",
          "name": "",
          "type": "uint8"
        }
      ],
      "stateMutability": "view",
      "type": "function"
    },
    {
      "inputs": [],
      "name": "getNumWords",
      "outputs": [
        {
          "internalType": "uint256",
          "name": "",
          "type": "uint256"
        }
      ],
      "stateMutability": "pure",
      "type": "function"
    },
    {
      "inputs": [],
      "name": "getNumberOfPlayers",
      "outputs": [
        {
          "internalType": "uint256",
          "name": "",
          "type": "uint256"
        }
      ],
      "stateMutability": "view",
      "type": "function"
    },
    {
      "inputs": [
        {
          "internalType": "uint256",
          "name": "index",
          "type": "uint256"
        }
      ],
      "name": "getPlayer",
      "outputs": [
        {
          "internalType": "address",
          "name": "",
          "type": "address"
        }
      ],
      "stateMutability": "view",
      "type": "function"
    },
    {
      "inputs": [],
      "name": "getRecentWinner",
      "outputs": [
        {
          "internalType": "address",
          "name": "",
          "type": "address"
        }
      ],
      "stateMutability": "view",
      "type": "function"
    },
    {
      "inputs": [],
      "name": "getRequestConfirmations",
      "outputs": [
        {
          "internalType": "uint256",
          "name": "",
          "type": "uint256"
        }
      ],
      "stateMutability": "pure",
      "type": "function"
    },
    {
      "inputs": [
        {
          "internalType": "bytes",
          "name": "",
          "type": "bytes"
        }
      ],
      "name": "performUpkeep",
      "outputs": [],
      "stateMutability": "nonpayable",
      "type": "function"
    },
    {
      "inputs": [
        {
          "internalType": "uint256",
          "name": "requestId",
          "type": "uint256"
        },
        {
          "internalType": "uint256[]",
          "name": "randomWords",
          "type": "uint256[]"
        }
      ],
      "name": "rawFulfillRandomWords",
      "outputs": [],
      "stateMutability": "nonpayable",
      "type": "function"
    }
  ],
  "bytecode": "0x6101606040523480156200001257600080fd5b506040516200184138038062001841833981810160405281019062000038919062000294565b858073ffffffffffffffffffffffffffffffffffffffff1660808173ffffffffffffffffffffffffffffffffffffffff1681525050508573ffffffffffffffffffffffffffffffffffffffff1660a08173ffffffffffffffffffffffffffffffffffffffff16815250508360e081815250508261012081815250508467ffffffffffffffff1660c08167ffffffffffffffff16815250508161014081815250506000600360006101000a81548160ff0219169083600181111562000101576200010062000330565b5b0217905550426000819055508063ffffffff166101008163ffffffff16815250505050505050506200035f565b600080fd5b600073ffffffffffffffffffffffffffffffffffffffff82169050919050565b6000620001608262000133565b9050919050565b620001728162000153565b81146200017e57600080fd5b50565b600081519050620001928162000167565b92915050565b600067ffffffffffffffff82169050919050565b620001b78162000198565b8114620001c357600080fd5b50565b600081519050620001d781620001ac565b92915050565b6000819050919050565b620001f281620001dd565b8114620001fe57600080fd5b50565b6000815190506200021281620001e7565b92915050565b6000819050919050565b6200022d8162000218565b81146200023957600080fd5b50565b6000815190506200024d8162000222565b92915050565b600063ffffffff82169050919050565b6200026e8162000253565b81146200027a57600080fd5b50565b6000815190506200028e8162000263565b92915050565b60008060008060008060c08789031215620002b457620002b36200012e565b5b6000620002c489828a0162000181565b9650506020620002d789828a01620001c6565b9550506040620002ea89828a0162000201565b9450506060620002fd89828a016200023c565b93505060806200031089828a016200023c565b92505060a06200032389828a016200027d565b9150509295509295509295565b7f4e487b7100000000000000000000000000000000000000000000000000000000600052602160045260246000fd5b60805160a05160c05160e051610100516101205161014051611472620003cf600039600081816102fa015261073e01526000818161066f015261071801526000610516015260006104d2015260006104f301526000610496015260008181610320015261037401526114726000f3fe6080604052600436106100c25760003560e01c80636b68c03c1161007f578063c1af578511610059578063c1af578514610259578063c1c244e814610263578063e55ae4e81461028e578063fd6673f5146102cb576100c2565b80636b68c03c146101c55780636e04ff0d146101f057806391ad27b41461022e576100c2565b806309bc33a7146100c75780631fe543e3146100f25780634585e33b1461011b578063473f1ddc1461014457806353a2c19a1461016f5780635f1b0fd81461019a575b600080fd5b3480156100d357600080fd5b506100dc6102f6565b6040516100e99190610bfc565b60405180910390f35b3480156100fe57600080fd5b5061011960048036038101906101149190610db0565b61031e565b005b34801561012757600080fd5b50610142600480360381019061013d9190610e67565b6103de565b005b34801561015057600080fd5b506101596105cf565b6040516101669190610ef5565b60405180910390f35b34801561017b57600080fd5b506101846105f9565b6040516101919190610bfc565b60405180910390f35b3480156101a657600080fd5b506101af610608565b6040516101bc9190610bfc565b60405180910390f35b3480156101d157600080fd5b506101da610615565b6040516101e79190610f87565b60405180910390f35b3480156101fc57600080fd5b5061021760048036038101906102129190611057565b61062c565b60405161022592919061113a565b60405180910390f35b34801561023a57600080fd5b50610243610714565b6040516102509190610bfc565b60405180910390f35b61026161073c565b005b34801561026f57600080fd5b506102786108ab565b6040516102859190610bfc565b60405180910390f35b34801561029a57600080fd5b506102b560048036038101906102b0919061116a565b6108b4565b6040516102c29190610ef5565b60405180910390f35b3480156102d757600080fd5b506102e06108fc565b6040516102ed9190610bfc565b60405180910390f35b60007f0000000000000000000000000000000000000000000000000000000000000000905090565b7f000000000000000000000000000000000000000000000000000000000000000073ffffffffffffffffffffffffffffffffffffffff163373ffffffffffffffffffffffffffffffffffffffff16146103d057337f00000000000000000000000000000000000000000000000000000000000000006040517f1cf993f40000000000000000000000000000000000000000000000000000000081526004016103c7929190611197565b60405180910390fd5b6103da8282610909565b5050565b60006103f86040518060200160405280600081525061062c565b509050806104675747600280549050600360009054906101000a900460ff16600181111561042957610428610f10565b5b6040517f6e195f2500000000000000000000000000000000000000000000000000000000815260040161045e939291906111c0565b60405180910390fd5b6001600360006101000a81548160ff0219169083600181111561048d5761048c610f10565b5b021790555060007f000000000000000000000000000000000000000000000000000000000000000073ffffffffffffffffffffffffffffffffffffffff16635d3b1d307f00000000000000000000000000000000000000000000000000000000000000007f000000000000000000000000000000000000000000000000000000000000000060037f000000000000000000000000000000000000000000000000000000000000000060016040518663ffffffff1660e01b815260040161055795949392919061126f565b6020604051808303816000875af1158015610576573d6000803e3d6000fd5b505050506040513d601f19601f8201168201806040525081019061059a91906112d7565b9050807febf56642252004c18a776f30d528e7a0ce8c5db14b6596fb6550f630c8a24c6c60405160405180910390a250505050565b6000600160009054906101000a900473ffffffffffffffffffffffffffffffffffffffff16905090565b6000600163ffffffff16905090565b6000600361ffff16905090565b6000600360009054906101000a900460ff16905090565b600060606000600360009054906101000a900460ff16600181111561065457610653610f10565b5b6000600181111561066857610667610f10565b5b14905060007f00000000000000000000000000000000000000000000000000000000000000006000544261069c9190611333565b119050600080600280549050119050600080471190508280156106bc5750835b80156106c55750805b80156106ce5750815b9550856040518060400160405280600381526020017f30783000000000000000000000000000000000000000000000000000000000008152509550955050505050915091565b60007f0000000000000000000000000000000000000000000000000000000000000000905090565b7f0000000000000000000000000000000000000000000000000000000000000000341015610796576040517fa4078c2400000000000000000000000000000000000000000000000000000000815260040160405180910390fd5b600060018111156107aa576107a9610f10565b5b600360009054906101000a900460ff1660018111156107cc576107cb610f10565b5b14610803576040517f823ea8bb00000000000000000000000000000000000000000000000000000000815260040160405180910390fd5b6002339080600181540180825580915050600190039060005260206000200160009091909190916101000a81548173ffffffffffffffffffffffffffffffffffffffff021916908373ffffffffffffffffffffffffffffffffffffffff1602179055503373ffffffffffffffffffffffffffffffffffffffff167f1d64fb5ba9f2548c5b98468d58f25b87b9e866afee0122e92d9fe722bf85076c60405160405180910390a2565b60008054905090565b6000600282815481106108ca576108c9611367565b5b9060005260206000200160009054906101000a900473ffffffffffffffffffffffffffffffffffffffff169050919050565b6000600280549050905090565b60006002805490508260008151811061092557610924611367565b5b602002602001015161093791906113c5565b905060006002828154811061094f5761094e611367565b5b9060005260206000200160009054906101000a900473ffffffffffffffffffffffffffffffffffffffff16905080600160006101000a81548173ffffffffffffffffffffffffffffffffffffffff021916908373ffffffffffffffffffffffffffffffffffffffff160217905550600067ffffffffffffffff8111156109d8576109d7610c6d565b5b604051908082528060200260200182016040528015610a065781602001602082028036833780820191505090505b5060029080519060200190610a1c929190610b3c565b506000600360006101000a81548160ff02191690836001811115610a4357610a42610f10565b5b02179055504260008190555060008173ffffffffffffffffffffffffffffffffffffffff1647604051610a7590611427565b60006040518083038185875af1925050503d8060008114610ab2576040519150601f19603f3d011682016040523d82523d6000602084013e610ab7565b606091505b5050905080610af2576040517f1c94012000000000000000000000000000000000000000000000000000000000815260040160405180910390fd5b8173ffffffffffffffffffffffffffffffffffffffff167f5b690ec4a06fe979403046eaeea5b3ce38524683c3001f662c8b5a829632f7df60405160405180910390a25050505050565b828054828255906000526020600020908101928215610bb5579160200282015b82811115610bb45782518260006101000a81548173ffffffffffffffffffffffffffffffffffffffff021916908373ffffffffffffffffffffffffffffffffffffffff16021790555091602001919060010190610b5c565b5b509050610bc29190610bc6565b5090565b5b80821115610bdf576000816000905550600101610bc7565b5090565b6000819050919050565b610bf681610be3565b82525050565b6000602082019050610c116000830184610bed565b92915050565b6000604051905090565b600080fd5b600080fd5b610c3481610be3565b8114610c3f57600080fd5b50565b600081359050610c5181610c2b565b92915050565b600080fd5b6000601f19601f8301169050919050565b7f4e487b7100000000000000000000000000000000000000000000000000000000600052604160045260246000fd5b610ca582610c5c565b810181811067ffffffffffffffff82111715610cc457610cc3610c6d565b5b80604052505050565b6000610cd7610c17565b9050610ce38282610c9c565b919050565b600067ffffffffffffffff821115610d0357610d02610c6d565b5b602082029050602081019050919050565b600080fd5b6000610d2c610d2784610ce8565b610ccd565b90508083825260208201905060208402830185811115610d4f57610d4e610d14565b5b835b81811015610d785780610d648882610c42565b845260208401935050602081019050610d51565b5050509392505050565b600082601f830112610d9757610d96610c57565b5b8135610da7848260208601610d19565b91505092915050565b60008060408385031215610dc757610dc6610c21565b5b6000610dd585828601610c42565b925050602083013567ffffffffffffffff811115610df657610df5610c26565b5b610e0285828601610d82565b9150509250929050565b600080fd5b60008083601f840112610e2757610e26610c57565b5b8235905067ffffffffffffffff811115610e4457610e43610e0c565b5b602083019150836001820283011115610e6057610e5f610d14565b5b9250929050565b60008060208385031215610e7e57610e7d610c21565b5b600083013567ffffffffffffffff811115610e9c57610e9b610c26565b5b610ea885828601610e11565b92509250509250929050565b600073ffffffffffffffffffffffffffffffffffffffff82169050919050565b6000610edf82610eb4565b9050919050565b610eef81610ed4565b82525050565b6000602082019050610f0a6000830184610ee6565b92915050565b7f4e487b7100000000000000000000000000000000000000000000000000000000600052602160045260246000fd5b60028110610f5057610f4f610f10565b5b50565b6000819050610f6182610f3f565b919050565b6000610f7182610f53565b9050919050565b610f8181610f66565b82525050565b6000602082019050610f9c6000830184610f78565b92915050565b600080fd5b600067ffffffffffffffff821115610fc257610fc1610c6d565b5b610fcb82610c5c565b9050602081019050919050565b82818337600083830152505050565b6000610ffa610ff584610fa7565b610ccd565b90508281526020810184848401111561101657611015610fa2565b5b611021848285610fd8565b509392505050565b600082601f83011261103e5761103d610c57565b5b813561104e848260208601610fe7565b91505092915050565b60006020828403121561106d5761106c610c21565b5b600082013567ffffffffffffffff81111561108b5761108a610c26565b5b61109784828501611029565b91505092915050565b60008115159050919050565b6110b5816110a0565b82525050565b600081519050919050565b600082825260208201905092915050565b60005b838110156110f55780820151818401526020810190506110da565b60008484015250505050565b600061110c826110bb565b61111681856110c6565b93506111268185602086016110d7565b61112f81610c5c565b840191505092915050565b600060408201905061114f60008301856110ac565b81810360208301526111618184611101565b90509392505050565b6000602082840312156111805761117f610c21565b5b600061118e84828501610c42565b91505092915050565b60006040820190506111ac6000830185610ee6565b6111b96020830184610ee6565b9392505050565b60006060820190506111d56000830186610bed565b6111e26020830185610bed565b6111ef6040830184610bed565b949350505050565b6000819050919050565b61120a816111f7565b82525050565b600067ffffffffffffffff82169050919050565b61122d81611210565b82525050565b600061ffff82169050919050565b61124a81611233565b82525050565b600063ffffffff82169050919050565b61126981611250565b82525050565b600060a0820190506112846000830188611201565b6112916020830187611224565b61129e6040830186611241565b6112ab6060830185611260565b6112b86080830184611260565b9695505050505050565b6000815190506112d181610c2b565b92915050565b6000602082840312156112ed576112ec610c21565b5b60006112fb848285016112c2565b91505092915050565b7f4e487b7100000000000000000000000000000000000000000000000000000000600052601160045260246000fd5b600061133e82610be3565b915061134983610be3565b925082820390508181111561136157611360611304565b5b92915050565b7f4e487b7100000000000000000000000000000000000000000000000000000000600052603260045260246000fd5b7f4e487b7100000000000000000000000000000000000000000000000000000000600052601260045260246000fd5b60006113d082610be3565b91506113db83610be3565b9250826113eb576113ea611396565b5b828206905092915050565b600081905092915050565b50565b60006114116000836113f6565b915061141c82611401565b600082019050919050565b600061143282611404565b915081905091905056fea264697066735822122080a05836ba04632d2f86635563e790d18ac067d5324b07fc97834ee6f145a7cf64736f6c63430008180033",
  "linkReferences": {},
  "deployedLinkReferences": {}
}